:100000000C942A000C9434000C9434000C943400AA
:100010000C9434000C9434000C9434000C94340090
:100020000C9434000C9434000C9434000C94340080
:100030000C9434000C9434000C9434000C94340070
:100040000C9434000C9434000C9434000C94340060
:100050000C94340011241FBECFE5D4E0DEBFCDBF29
:100060000E946C010C9483010C94000012BE68BBCA
:1000700024E6289FA001299F500D112422B730E0CB
:100080002417350734F492B79F3FC1F75A9512BE33
:10009000F5CF18BA089561E070E084E090E00E9426
:1000A000360062E070E084E090E00E94360064E098
:1000B00070E084E090E00E94360062E070E084E04E
:1000C00090E00E94360068E070E084E090E00E94DA
:1000D000360060E170E084E090E00E94360068E065
:1000E00070E088E090E00E94360062E070E084E01A
:1000F00090E00E94360064E070E084E090E00E94AE
:10010000360060E170E084E090E00E94360064E038
:1001100070E084E090E00E94360062E070E080E1F0
:1001200090E00E94360061E070E084E090E00E9480
:10013000360062E070E084E090E00E94360064E007
:1001400070E084E090E00E94360062E070E084E0BD
:1001500090E00E94360068E070E084E090E00E9449
:10016000360060E170E084E090E00E94360068E0D4
:1001700070E088E090E00E94360062E070E084E089
:1001800090E00E94360064E070E084E090E00E941D
:10019000360060E170E084E090E00E94360064E0A8
:1001A00070E084E090E00E94360062E070E080E160
:1001B00090E00E94360060E270E084E090E00E94EF
:1001C000360060E270E084E090E00E94360060E279
:1001D00070E084E090E00E94360060E270E084E02D
:1001E00090E00E94360060E270E084E090E00E94BF
:1001F000360060E270E084E090E00E94360060E249
:1002000070E088E090E00E94360060E270E084E0F8
:1002100090E00E94360068E070E084E090E00E9488
:10022000360062E070E084E090E00E94360068E012
:1002300070E084E090E00E94360060E270E080E1CF
:1002400090E00E94360060E270E084E090E00E945E
:10025000360060E270E084E090E00E94360060E4E6
:1002600070E084E090E00E94360060E270E084E09C
:1002700090E00E94360068E070E084E090E00E9428
:10028000360060E170E084E090E00E94360068E0B3
:1002900070E088E090E00E94360062E070E084E068
:1002A00090E00E94360064E070E084E090E00E94FC
:1002B000360060E170E084E090E00E94360064E087
:1002C00070E084E090E00E94360062E070E080E13F
:1002D00090E00E943600089511BA8FEF87BB82BB71
:1002E00085E083BF87E881BF80B3813019F40E9425
:1002F0004B00FACF80B38230B9F70E944B0080B335
:0A0300008430D9F7F1CFF894FFCF55
:00000001FF
