:020000020000FC
:1000000000E808B900E001BB0FEF07BB02BB10E03E
:1000100030E038BB20B32117E9F3112321F4222368
:1000200011F00C942E00122F0C940A003395339586
:1000300033950C9493003A953A953A950C94930025
:10004000339533953395339533950C9493003A95C6
:100050003A953A953A953A950C9493002130E9F007
:10006000223049F0243059F1283011F00C940A0064
:1000700030E00C9493003130C9F23B30B9F23230A9
:10008000F9F23830E9F23430B1F23E30A1F23730D3
:10009000F1F23D30E1F20C940A003430C1F1363017
:1000A000B1F13530D1F13D30C1F1323051F13A305A
:1000B00041F1393079F13B3069F10C940A0030306C
:1000C00031F1313021F1323011F1353001F13D3073
:1000D00009F13E30F9F03F30E9F03A30D9F03430F0
:1000E000E1F03830D1F03C30C1F03930B1F033308C
:1000F00041F0363031F0373021F03B3011F00C94C4
:100100000A0033953395339533950C9493003395CA
:100110000C9493003A950C9493003A953A953A953D
:0C0120003A950C94930038BB0C9413002B
:00000001FF
